:020000040800f2
:10000000283b0020cdb6000811b8000811b8000840
:1000100011b8000811b8000811b80008000000006d
:1000200000000000000000000000000011b80008ff
:1000300011b800080000000011b8000811b800084d
:1000400011b8000811b8000811b80008000000003d
:100050000000000011b8000811b8000811b800082d
:1000600011b800080000000011b8000811b800081d
:1000700011b800080000000011b8000811b800080d
:1000800011b8000811b800080000000011b80008fd
:1000900011b800080000000000000000000000008f
:1000a00000000000000000000000000011b800087f
:1000c000ab00ae0a85eb0920f0d4096016eaad4a10
:1000d0004322c60a7cde4f20216c4d60a5afc34a87
:1000f00024ca410b7740a421f3d78561894d234b56
:00000001FF
